:020000040000fa
:080000000004040000000000f0
:020000040000fa
:100800000fa120000eff27000e018800000000004d
:100810000c000700e0332100010020000f0007005a
:10082000000020000000e000020032000000020092
:100830000000000008120200000000000040da0082
:100840000000fe00000c20000000e000020032006a
:10085000002020009001880000000600a10288000e
:10086000800078000000eb001a003700e2804000b2
:1008700054a0b4009101ba00e280400054a0b4003a
:100880009102ba00e280400054a0b4000002eb00e4
:10089000472bde00f507b200a6018800602ce100be
:1008a00008003a000049eb000201e80002003900ac
:1008b0003420ec0002f0a0008301e900f9ff3e00c3
:1008c000040037006128e100010032000082eb00e3
:1008d000040007001101ba000200e000e3ff3a0043
:1008e0000000060004d0a300e20f49001c003900fc
:1008f000810278003549ba000201e800020039009f
:100900003420ec0002f0a0008301e9000f00320067
:100910002549ba000201e800020039003420ec0049
:1009200002f0a0008301e900080032000400e000aa
:100930000600320015c9ba000201e80002003900c1
:100940003420ec0002f0a0008301e9008180e8007f
:1009500054a0b4000300e000e2ff3a0000000600eb
:100960009102ba00055978008301e900f7ff3200cf
:10097000c82ade00055978008301e900f3ff320040
:100980000400e000f1ff320011d9ba00eeff370099
:100990008001eb0002003700817178008301e800dc
:0c09a000828f5100fcff3a0000000600ae
:020000040000fa
:020000040005f5
:0457f400ffff0000b3
:020000040000fa
:020000040005f5
:0457f800ae6b000094
:020000040000fa
:020000040005f5
:0457fc00783e0000f3
:020000040000fa
:1028000000040400000000006a130400000000003f
:102810006a130400000000006a13040000000000b6
:102820006a130400000000006a13040000000000a6
:102830006a130400000000006a1304000000000096
:102840006a130400000000006a1304000000000086
:102850006a130400000000006a1304000000000076
:102860006a130400000000006a1304000000000066
:102870006a130400000000006a1304000000000056
:102880006a130400000000006a1304000000000046
:102890006a130400000000006a1304000000000036
:1028a0006a130400000000006a1304000000000026
:1028b0006a130400000000006a1304000000000016
:1028c0006a130400000000006a1304000000000006
:1028d0006a130400000000006a13040000000000f6
:1028e0006a130400000000006a13040000000000e6
:1028f0006a130400000000006a13040000000000d6
:102900006a130400000000006a13040000000000c5
:102910006a130400000000006a13040000000000b5
:102920006a130400000000006a13040000000000a5
:102930006a130400000000006a1304000000000095
:102940006a130400000000006a1304000000000085
:102950006a130400000000006a1304000000000075
:102960006a130400000000006a1304000000000065
:102970006a130400000000006a1304000000000055
:102980006a130400000000006a1304000000000045
:102990006a130400000000006a1304000000000035
:1029a0006a130400000000006a1304000000000025
:1029b0006a130400000000006a1304000000000015
:1029c0006a130400000000006a1304000000000005
:1029d0006a130400000000006a13040000000000f5
:1029e0006a130400000000006a13040000000000e5
:1029f0006a130400000000006a13040000000000d5
:102a00006a130400000000006a13040000000000c4
:102a10006a130400000000006a13040000000000b4
:082a20006a130400000000002d
:020000040000fa
:1000080004140000081400000c1400001014000070
:100018001414000004140000041400000414000068
:10002800181400001c140000201400002414000000
:1000380004140000281400002c14000030140000e0
:1000480034140000381400003c1400004014000070
:1000580044140000481400000414000004140000b4
:100068004c140000501400005414000058140000f0
:100078005c14000004140000601400006414000004
:1000880004140000681400006c14000070140000d0
:1000980074140000781400007c1400008014000020
:1000a80084140000881400000414000004140000e4
:1000b800041400008c140000901400009414000034
:1000c800981400009c140000a0140000a414000060
:1000d800a8140000ac14000004140000041400006c
:1000e80004140000b0140000b4140000041400004c
:1000f80004140000b8140000bc140000041400002c
:100108000414000004140000041400000414000087
:100118000414000004140000c014000004140000bb
:1001280004140000c4140000c8140000cc1400001b
:100138000414000004140000041400000414000057
:10014800d01400000414000004140000041400007b
:1001580004140000d4140000041400000414000067
:1001680004140000d8140000dc140000e01400009f
:10017800e4140000e8140000ec140000f01400007f
:10018800f4140000f8140000fc140000001500002e
:1001980004150000081500000414000004140000f1
:1001a80004140000041400000414000004140000e7
:1001b8000c150000041400000414000004140000ce
:1001c80004140000041400000414000004140000c7
:1001d80004140000041400000414000004140000b7
:1001e80004140000041400000414000004140000a7
:0801f8000414000004140000cf
:020000040000fa
:1009ac005685000022850000fc8400005a8500005a
:1009bc0006000000ff09000001a100000119000061
:1009cc00012900004015000000260000ff00000077
:1009dc00750800009540000081000000190100001e
:1009ec002940000091000000c00000002603000018
:1009fc0055000000530000004200000020000000e1
:100a0c0048000000490000004400000020000000e5
:100a1c00420000006f0000006f0000007400000036
:100a2c006c0000006f00000061000000640000001a
:100a3c006500000072000000340300004d0000004f
:100a4c006900000063000000720000006f000000ed
:100a5c0063000000680000006900000070000000e6
:100a6c00200000005400000065000000630000003e
:100a7c00680000006e0000006f0000006c000000b9
:100a8c006f000000670000007900000020000000eb
:100a9c00490000006e000000630000002e00000002
:100aac0004030000090400000902000029000000f2
:100abc000101000000c00000320900000400000029
:100acc0000020000030000000000000009210000eb
:100adc001101000000010000221d000000070000b1
:100aec000581000003400000000100000705000024
:100afc000103000040000000010000001201000092
:100b0c00100100000000000000080000d8040000e4
:100b1c003c00000002000000010200000001000087
:020000040000fa
:100b2c009ec0a9000080eb0070248800502488002f
:100b3c008000eb0051258800612588003125880054
:100b4c00412588008644a900f009200080248800f3
:100b5c00602488008804a80000a020004800de0063
:100b6c00c024880004a020006011b8004208dd00f9
:100b7c00040040000288be008100e800e48f5000b1
:100b8c00faff3a009424a8009624ef0094a4a9003c
:100b9c009424a90042952000124178008300200083
:100bac008040eb0007003700532488008000fd00d4
:100bbc0046e9b70047e9b70048e9b7008000fd00f7
:100bcc00014178008ac4bf000038a300f6ff3a0048
:100bdc000200780054e9b70010002000304988006a
:100bec00204988000000eb00c04a8800e04a8800d9
:100bfc00704a8800c4932000029420008000eb000f
:100c0c00b592200093922000011a78000119780007
:100c1c0001f07a0001f079000000e800e20f5000ca
:100c2c00f9ff3a0040a02000e0498800d0002000e5
:100c3c0050258800c09120001050880080c0b3005f
:100c4c0000eab70040c8b30001eab7000100780021
:100c5c004be9b700614a8800000006008000eb00f9
:100c6c00714a880001017800400720002f06070018
:100c7c008284a900000120000024880000000600e6
:100c8c008284a8000001200050248800100020005d
:100c9c00704a88000001eb008000eb005007200038
:100cac00220637002609e2001b003a001000200043
:100cbc0030498800214980000100e00016003a000c
:100ccc002049880034c9bf00e24f500006003a00aa
:100cdc00e04980000148780081ccb300e0498000f5
:100cec001140980000000600e14f50000a003a0045
:100cfc002e29ef0081c0b300b04980000148780074
:100d0c00c1912000b04980001100980001c8b300c7
:100d1c00b04980001140980000000600aac4bf0032
:100d2c000018a3000d003200c249800092409000d0
:100d3c0000c8b30080cf500007003a00e0498000a3
:100d4c009040900040c8b30080cf500002003a00a1
:100d5c006840400010419800aa24a9000008200017
:100d6c0050248800000006008081fb0003824100b3
:100d7c000180fb00000042004200dd0002a02000c8
:100d8c0002014000124090000074a1001041980034
:100d9c000104e00003003a000094200002327800c5
:100dac000300370083804100c0932000823078001c
:100dbc00124090000064a000104198000000060052
:100dcc00889fbe008a1f7800004478000145780097
:100ddc008184fb000938a300020032008040eb0044
:100dec00e1ff07000928a3000300320011c0b30083
:100dfc0008407800dcff07000880fb000000400082
:100e0c00a14a20000af078004f0578004f04be007c
:100e1c00000006000104e000040032000080fb002a
:100e2c0000004000c1932000030037000080fb004d
:100e3c000000400001942000608278000400e00073
:100e4c0002003a00040078000000060014409000f4
:100e5c000064a2001042980012029800034a780025
:100e6c00144090000044b2001042980014409000ce
:100e7c0081c8b30001407000104298000400780053
:100e8c00000006000004e0000c003a0081c0b30032
:100e9c00b049800001487800c1912000b049800021
:100eac0011009800c1c8b300b049800011409800ef
:100ebc00e8c05000e04980000a0037000080fb00c9
:100ecc00000040008180fb00010040004200dd007a
:100edc0001a02000010040009040900042c8b300e7
:100eec0082c070001140980000000600804078001d
:100efc0094c4bf000058a3000e0032000181fb0017
:100f0c0002014100c09320000001410092017800d1
:100f1c001300be0004042000050020000000620045
:100f2c00010020008089be001200780010186a00b1
:100f3c0010906a0000000600b14a800083c0b30024
:100f4c00e78f500009003e008141780035c9bf0091
:100f5c0002003a0010c0b30003003700e14f50000c
:100f6c0002003a0020c0b30035e9b7000380fb0053
:100f7c0000805000b04a8800e049800003487800a7
:100f8c0040912000904988005409ab0002003200c7
:100f9c000341780012003700034178008041eb00d8
:100fac000600370090498000914a80003158780043
:100fbc0090498800914a88000241e900834f510012
:100fcc00f8ff3a000000060090498000914a80002a
:100fdc003158780090498800914a88000241e90014
:100fec000204e000f8ff3a00000006000000eb00ed
:100ffc00c04a8800e04a88004093200021c0b3001a
:10100c0090cf100009003a0081c0b300b0498000b5
:10101c000148780041912000b049800011009800ef
:10102c0081ccb300b04980001600370022c9bf0044
:10103c000080fb003192200091407800c808dd0050
:10104c0080807000b04a8000808f50000700310013
:10105c0021922000914078008180fb0023c9bf00c1
:10106c004800dd0001007000b04a8800b2ff0700a4
:10107c0041912000e04980001100980081ccb30020
:10108c00e0498000114098000000060094a4a900db
:10109c0054e9ab0018003a004649e20009003d0053
:1010ac0020c0b30034e9b7005c09e20001003a004b
:1010bc00ceff07000000eb00204988003049880073
:1010cc000000060081c0b300b049800001487800e0
:1010dc00c1912000b049800011009800c1c8b30034
:1010ec00b049800011409800e8c05000e0498000f1
:1010fc0011409800000006001c49e2000b003d0066
:10110c0010c0b30034e9b7005809e20001003a00fe
:10111c00b6ff07000000eb0020498800304988002a
:10112c005a09e20012003a00defe370020c0b3007c
:10113c0034e9b70081c0b300b049800001487800a1
:10114c00c1912000b04980001100980041c8b30043
:10115c00b0498000114098000000eb002049880045
:10116c00304988005a09e20001003a00cdfe070020
:10117c0000000600c0498000904178007194200066
:10118c00914078008180fb0048c9bf004800dd0019
:10119c00810070000380fb00810f500001003600bd
:1011ac00814178000380fb000080500047e9b700c4
:1011bc004800de0048e9b7000002eb004691200031
:1011cc00f50f20000f00370041942000914078006b
:1011dc008180fb0045c9bf004800dd0001007000a4
:1011ec008280fb0061587b00850060008000fd0060
:1011fc0044e9b7008000fd004800de0045e9b70077
:10120c000402e80004417800834f5200eeff3900dd
:10121c0071942000914078008180fb0048c9bf0088
:10122c004800dd00010070000f00320081c0b300e7
:10123c00b04980000148780041912000b0498000fd
:10124c0011009800c04980001040900081ccb30080
:10125c000068a3000100320081c8b300b0498000cf
:10126c00114098000000060081c0b300b049800016
:10127c0001487800c1912000b0498000110098000d
:10128c0041c8b300b04980001140980091942000ef
:10129c00914078008180fb004ac9bf004800dd0006
:1012ac0001007000010032000000010046e9a900b5
:1012bc005a09e20001003a007afe0700000006001d
:1012cc00881f780054e9a8000004eb00682588000a
:1012dc00020120008800780000a02000a9fd070072
:1012ec009424a80008007800b39220008040eb0002
:1012fc009292200001f07900017079000000e80062
:10130c00e20f5000fbff3a00010078003ae9b70009
:10131c009424a90040a02000e049880000a02000ef
:10132c00c0498800b04988001ec9bf004be9b7000e
:10133c0002003a00000120000500370012002000d6
:10134c00b194200010002000780407000002200057
:10135c00604a88004f04780000000600c19120000c
:10136c009140780000c8b30080cf500027003a00ad
:10137c0000ccb30054e9b7001fc9bf00e24f5000c6
:10138c0008003200e34f500011003200e14f5000d2
:10139c001d003a0040582800904a88002001200087
:1013ac00150037001ec9bf000080fb000000400084
:1013bc00c14d2800e0807800914a880021409000bf
:1013cc0056e9b7003140900057e9b700000006001d
:1013dc001ec9bf00e24f500009003e001ec9bf00ed
:1013ec000080fb0000004000614d28006080780008
:1013fc00904a88001080fb00b04a8800000006006c
:10140c005469ef00000006005469ef00000006006c
:10141c000040eb0014e9b70015e9b7001cc9bf0088
:10142c007f006000e10f50000b003200e20f500013
:10143c000b0032000000e0001c003a0054e9a80048
:10144c001409a800804a8000e10f500017003a00f0
:10145c001429a8001500370054e9a8001300370020
:10146c0054e9a8002049e2000500350020c9bf005e
:10147c006f00600000004000019420000400370061
:10148c0020c9bf006f00600000004000c193200025
:10149c00608078000140280010806000810f5000af
:1014ac0002003a0010c0b30014e9b70054e9ab00d5
:1014bc000500320040912000904a88005409a80091
:1014cc0020c0b30056e9b70000000600409320008e
:1014dc0021c0b30090cf100001003a0025ff370067
:1014ec003469ef002e09e2000a003a0081c0b30013
:1014fc00b049800001487800c1912000b0498000bb
:10150c0011009800c1c8b300b04980001140980088
:10151c00000006002e29ef0000000600881f78004e
:10152c00e0498000104090004600de00610460003d
:10153c00604a8000e80f500008003a001ec9bf0046
:10154c000080fb00b0248800000120009604e2001b
:10155c0001003a0040002000604a880040932000bf
:10156c0011c0b30090cf100011003a004091200040
:10157c00e1498000900098006ffe07005093200016
:10158c0021c0b30090cf100002003a0041c8b30054
:10159c000400370081c8b3000804e00001003a00e1
:1015ac0081ccb300e0498000114098000c0037005a
:1015bc004649e20009003d009194200091407800da
:1015cc008180fb004ac9bf004800dd0001007000ab
:1015dc00010032000000010046e9a9003469ef0067
:1015ec004f047800000006001ec9bf00e14f5000f8
:1015fc000b003a001cc9bf007f40600008003a0095
:10160c0054e9a8001dc9bf00e34f500003003a0085
:10161c0010002000804a8800010037005029ef009c
:10162c001e49e20067003a001cc9bf007f40600001
:10163c00e24f500063003a0020c9bf006f406000c9
:10164c006000320020c9bf006f006000e10f500045
:10165c005c003c00614a800000022000808f50003a
:10166c0058003a0054e9a8002049e200090035006e
:10167c0020c9bf006f0060000000400001942000f2
:10168c00e081780020c9bf006f00600091922000bb
:10169c000800370020c9bf006f0060000000400048
:1016ac00c1932000e081780020c9bf006f0060006a
:1016bc00b192200060c178002049e200050035009d
:1016cc0020c9bf006f0060000000400001942000a2
:1016dc000400370020c9bf006f006000000040000c
:1016ec00c193200003b078001dc9bf00e34f500028
:1016fc0012003a001300e0000b003d002049e2000c
:10170c000400350020c9bf006f00600091922000da
:10171c000300370020c9bf006f006000b1922000a9
:10172c00010040001014a0001340900041c8b30009
:10173c000140700090419800000006000218a300c0
:10174c0002003a001300e00014003d002049e200c2
:10175c000400350020c9bf006f006000919220008a
:10176c000300370020c9bf006f006000b192200059
:10177c00010040001014a10013409000b047b200cb
:10178c000064a000904198002200200083007800a3
:10179c005000200065030700040037001340900040
:1017ac00b047b2000064a0009041980020c9bf006f
:1017bc006f00600000004000a14a200001004000c2
:1017cc001014a100000006001cc9bf000046b200a6
:1017dc0032003a001dc9bf000080fb000100200050
:1017ec00eb0f5000e08f58002c003e000060010011
:1017fc0013003700130037002800370011003700a2
:10180c002600370006003700090037001f0037009c
:10181c0009003700070037000b00370014003700b1
:10182c0054e9a80080002000604a880000000600ef
:10183c00cafe3700a2fe3700b09420000600370025
:10184c00f3fe370068ff370020c9bf000080fb00a3
:10185c00a193200001004000904a88005409a80080
:10186c0010c0b30056e9b70054e9a8000000060008
:10187c0054e9a80020c9bf000080fb00a193200000
:10188c00e291200012f07800000006000001eb004d
:10189c008000eb002000200024030700000006005d
:1018ac00881f78008041eb000300780035e9b70011
:1018bc000004eb00d84a8800c84a8800e84a88002f
:1018cc00784988000300780034e9b700e1498000ca
:1018dc0011409000f2c7b3000240600090409800a5
:1018ec00e149800011409000024060009040980057
:1018fc00b149800011409000024060009040980077
:10190c008001fd0054e9b7008001fd00b84a880051
:10191c008001fd0046e9b70047e9b70048e9b70088
:10192c008001fd00a8ff07000801780088007800fe
:10193c0030002000fd020700d4fd07004f047800a2
:10194c0000000600d0c2b30028e9b70031c9bf00bf
:10195c000080fb00000178000220a1000200e000e2
:10196c0019003a00c00fb20001a020000100400095
:10197c00c0498800b049880010409000c043b200b4
:10198c0041c3b300814f50000e003a00c3912000b8
:10199c00c1498000110090001040780000f17900de
:1019ac00110090000000e800900098000201e8008f
:1019bc00e80f5100f6ff3a00c04980001300980070
:1019cc00b7ff3700c1fe3700e80f510001003a00a5
:1019dc00d2fe070000000600881f78004c09e200c8
:1019ec0010003a000000eb00a0248800602488005e
:1019fc0030258800402588008644a900f009200085
:101a0c008024880060248800010037009404a8001a
:101a1c0094c4bf000008a300fcff3200100020009b
:101a2c00604a8800604a8000e10f500009003a00cb
:101a3c0094c4bf000068a30006003a008aa4ef001b
:101a4c008c24ef008c04a8008c84a80020002000bb
:101a5c00604a880080c4bf000048a3000600320022
:101a6c0082c4bf000048a300030032000001200024
:101a7c000024880079fc070088c4bf000018a3006c
:101a8c0055003a008ac4bf000008a30008003200c9
:101a9c008cc4bf000008a3000500320020fc070026
:101aac0040002000604a880010002000502488006c
:101abc008ac4bf000048a300060032008cc4bf00db
:101acc000048a300030032006dfc07000001200059
:101adc00502488008ac4bf000028a3000f003200e5
:101aec008cc4bf000028a3000400320012002000a8
:101afc008000eb00300720008c0207004000200023
:101b0c005024880028c9bf00030032000040e900bf
:101b1c0028e9b70001003a0062fc07008a44e200a1
:101b2c0005003d008cc4bf0001c8b300014060003b
:101b3c000100320079fc07008ac4bf000018a30022
:101b4c000a0032008cc4bf000018a300070032004a
:101b5c00120020008000eb00f0ff2700730207004a
:101b6c008ea4ef002000200050248800604a8000e2
:101b7c00e30f5000180036008cc4bf000038a300df
:101b8c001500320048c0b3008ac4bf000038a3005f
:101b9c00110032009024800031e9b7000080fb0076
:101bac004400de0030e9b700810020005124880099
:101bbc000004e00002003a0062ff07000400370056
:101bcc000001eb00119320002007200057020700b2
:101bdc000844e900ecff3a008ec0a9004f047800dd
:101bec0000000600f502a900e4c2a9007860a90073
:101bfc00cbc2bf000068a300fdff3a00dbc2bf00f0
:101c0c000038a300faff3a00e2c2bf000058a3005c
:101c1c00f7ff3a00f3c2bf000018a300f4ff3a002c
:101c2c000014040000000000000006000000eb009f
:101c3c00102788002027880030278800502788002c
:101c4c0060278800c9c2a800d962a800e0a2a80039
:101c5c00f122a800f102a900e0c2a900f502a90036
:101c6c00e4c2a900f0c2a800c8a2a800e862a900ba
:101c7c00ec62a900e822a900e082a900ec22a900ec
:101c8c00e482a800cd62a900c962a900f042a800b4
:101c9c00f062a8007860a900e8e2a8000000060045
:101cac000000eb00204b8800104b88001200200035
:101cbc00024b880091cab3008000fd0012e9b70006
:101ccc008000fd0001802a0071488800210020005e
:101cdc00814888000001fd00c4e8b7000001fd0048
:101cec000de9b700c6a8ef00c8a8ef00cae8b70016
:101cfc0000000600cdff0700f502a80044a7a800cd
:101d0c00802520000000e900e10f4000fdff3a00b3
:101d1c007860a80082fb0700e1ff0700f502a8002d
:101d2c0000000600c008e20002003a000071220028
:101d3c0000468800024680000201e9000246880045
:101d4c00614a800000022000808f500008003a0099
:101d5c005e09e200040032000200e00005003a00d7
:101d6c00e4c2aa0003003700e4c2a8000100370057
:101d7c00e4c2a9004c09e20001003a0099ff0700f7
:101d8c00000006000cc9bf000080fb000100200011
:101d9c004a09dd00c600de00810071004a00dd004a
:101dac0022042400023b88000181fb00a20288006f
:101dbc000081eb000208bb001000fc005005200065
:101dcc00303b8800a00a2000303b880061e7a80067
:101ddc00000000000000000001c8b30061c7bf0094
:101dec0001406000fdff3a000000060030002400b6
:101dfc00003b8800c38c20003446800045468000a0
:101e0c00160037000080fb0001002000000052008b
:101e1c0081805a00a10288001308bb0013019000b6
:101e2c000288bb001000fc0050052000303b8800ed
:101e3c00a00a2000303b880061e7a80000000000e9
:101e4c000000000001c8b30061c7bf000140600082
:101e5c00fdff3a00cae8ed00e4814100cac8bf00aa
:101e6c00e8ff3a0061c7a900000006000400fa0070
:101e7c00e0bf9f00f1bf9f00a10280007fb89700d8
:101e8c00a00288006fb897009081ba001001ba00c8
:101e9c00a10288000200be000080fa0000000600cb
:101eac00889fbe000d49e20022003a00104b8000d2
:101ebc000000e00003003200104090000004e0003d
:101ecc0043013500204b80000000e000030032008d
:101edc00104090000004e0003d0135000000eb00d4
:101eec00038820000280200001042000e2717800a9
:101efc000000e800810f5000fcff3a0080417800a0
:101f0c008040eb0010c0b300c2fb0700204b8800e0
:101f1c0010c0b3000de9b700008420000041eb00b5
:101f2c000188200002587800810f500028013200ef
:101f3c00fcff370080c8bf00e54f50007100320035
:101f4c0006003e00e34f5000490032005b003e00ab
:101f5c00e24f50001e013a0006003700e74f5000d8
:101f6c00be003200b8003900e84f500018013a00aa
:101f7c001001370024c0b3000400780040e8b7001b
:101f8c0080c3b30041e8b7000400780042e8b70012
:101f9c0010c0b30043e8b7008041eb0003007800a9
:101fac0044e8b70040c1b30045e8b7008001fd002c
:101fbc0046e8b70047e8b7008001fd0000c02e00de
:101fcc00f1ff2f0076488000874880000600400013
:101fdc008780480048e8b7004801de00020078001e
:101fec0049e8b700010078004ae8b7004808de006d
:101ffc004be8b70080c0eb00010078004ce8b7005c
:10200c00c448e20013003a0030c0b3004ce8b700fb
:10201c0080cfb3004de8b700b0cab3004ee8b700ac
:10202c00040078004fe8b7000300780050e8b700d0
:10203c0080c0b30051e8b7008001fd0052e8b70042
:10204c0053e8b70054e8b7008001fd0001007800a8
:10205c0055e8b700104b80000000e000cd003200c6
:10206c00104090000004e000d9003500c900370092
:10207c008148e20008003a00a0cab30012e9b70098
:10208c0087bf2a00774888002700200087488800ef
:10209c00c468ef00c500370090cab30012e9b7005e
:1020ac0000802a00704888002000200080488800aa
:1020bc0010c0b300c4e8b700bc00370050c0b30078
:1020cc000ce9b70004003700e4c2aa002dff07009a
:1020dc0041fe07000c69ec00c19020009140780093
:1020ec008180fb0012c9bf000080fb000000e800eb
:1020fc00808f5000f4ff3500e4c2a80061c7a9002e
:10210c00aa003700e4c2a900304680004146800096
:10211c00e10f4000e08f48000e003a0011882000cb
:10212c00914078008180fb0082c8bf004800dd0030
:10213c000101700031882000914078008180fb0003
:10214c0084c8bf004800dd00810170003246880061
:10215c004346880011882000914078008180fb0064
:10216c0082c8bf004800dd000101700031882000ea
:10217c00914078008180fb0084c8bf004800dd00de
:10218c00810170000004eb00304680004146800065
:10219c00820f5000838f58002300320083003700d9
:1021ac00a48c2000144278008481fb0083814100c0
:1021bc008180fb00800320000100500022002000e1
:1021cc00110009000200d8008580fb0001004000ce
:1021dc000000400081882000010040009080fb003e
:1021ec00104090004800dd0001007000c18c200000
:1021fc0080b178000442e80004007800cae8b70017
:10220c00364680004746800061034300e0834b0064
:10221c003646880047468800fc4f520001003a00c1
:10222c00f2fe07000804e80088427800518820007c
:10223c00914078000180fb000000d100804f5400d9
:10224c00d7ff390059003700e4c2a800e7fe0700a9
:10225c00c6a8ef00c8a8ef0054003700104b800050
:10226c000000e00003003200104090000004e00089
:10227c005700350070c0b30040e8b700118820004b
:10228c00914078008180fb0082c8bf004800dd00cf
:10229c000101700031882000914078008180fb00a2
:1022ac0084c8bf004800dd00810170000200780086
:1022bc0041e8b7004810de0042e8b70003007800a0
:1022cc0043e8b7004818de0044e8b70085c8bf00f3
:1022dc0045e8b7008044eb00290037001388200044
:1022ec00934178008381fb00228820001241780002
:1022fc004811dd0003007100338820009341780001
:10230c008381fb0042882000124178004811dd00d7
:10231c00830071000981fb000300200000004100d4
:10232c0081804900d1fe07008981fb005288200082
:10233c00124178000281fb000201d1008281510020
:10234c008381410004042000030242000884200021
:10235c0008024200f50f2000054a60004801de002b
:10236c0012429800858360002304b00088814100ec
:10237c0085c963004838de009041980089c4e800a4
:10238c0085c8bf000080fb000000d10080cf540046
:10239c00d2ff390003c4b3000284200011c0b30083
:1023ac00014078009bfa0700104b88000d69ef0084
:1023bc00070037000000eb00a0248800000000009c
:1023cc000000e800e10f4000fcff3a0005fe0700aa
:1023dc004f04be00000006006009e200010032005c
:1023ec0050fe0700604a8000ff0f500004003600ca
:1023fc0088c4bf000018a30001003a00a8fe070023
:10240c000000060009fe0700cbc2bf000068a30055
:10241c0009003a00dbc2bf000038a30006003a00f6
:10242c00e2c2bf000058a30003003a00f3c2bf0091
:10243c000018a30001003200eafd07002dfe070082
:10244c0065fd0700e4ff0700cbc2bf000068a300d6
:10245c0009003a00dbc2bf000038a30006003a00b6
:10246c00e2c2bf000058a30003003a00f3c2bf0051
:10247c000018a300f2ff3200dafd0700f0ff37006e
:10248c000000060000000600000006000000060028
:10249c002f00370000000600d1c1b30010c0b300fc
:1024ac0047fa070003c4b300028020008040eb0011
:1024bc0010c0b30057fa0700204b8800000006003c
:1024cc00804a8000e10f500017003a00704a8000eb
:1024dc00e10f500014003a008824a9008000eb00a2
:1024ec00714a880000e12000104688000100780045
:1024fc0001e120000000e800810f5000fdff3a00d0
:10250c009444a80080702000104688000000eb0066
:10251c00817020000000e800810f5000fdff3a00a0
:10252c00c228ef009444a90000000600e10f5000ff
:10253c0003003200e30f500004003a0002003700a1
:10254c00d5ff070001003700d1ff07001000050080
:10255c001cc9bf007f406000e14f500043003a00af
:10256c002049e20041003a001dc9bf00e64f50006f
:10257c0017003a00f1912000914078007b40400018
:10258c0080cf5000040032000040e80080cf5000a3
:10259c000f003a0008003700b094200011c0b300bf
:1025ac0090cf10000a003a00c0562800904a8800cc
:1025bc009000200003003700e04d2800904a88006e
:1025cc00d0012000b04a880000ccb30054e9b70019
:1025dc001cc9bf000046b20001c2b300814f5000bd
:1025ec0022003a001dc9bf00e34f50001400320016
:1025fc0003003e00e24f50001c003a00050037007b
:10260c00ea4f500009003200eb4f500017003a001f
:10261c001200370070962000904a880010002000ad
:10262c00b04a880010ccb3000a00370000c8b300d1
:10263c0054e9b7001fc9bf0067e9b70000000600e6
:10264c0060962000904a880010002000b04a880054
:10265c0010c8b30054e9b7000000060000c8b3006e
:10266c0054e9b7001ec9bf0066e9b70000000600b8
:020000040000fa
:10267c00140900004a00000080000000000a00005d
:10268c00100000008000000066090000020000003d
:10269c00800000005e0900000800000082000000bd
:1026ac00000001000000000000000000c008000055
:1026bc00540000008000000000080000c000000072
:0826cc00800000000000000086
:020000040000fa
:0826d4000040da000000fe00e6
:020000040000fa
:080000001420040000000000c0
:020000040000fa
:1000080004140000081400000c1400001014000070
:100018001414000004140000041400000414000068
:10002800181400001c140000201400002414000000
:1000380004140000281400002c14000030140000e0
:1000480034140000381400003c1400004014000070
:1000580044140000481400000414000004140000b4
:100068004c140000501400005414000058140000f0
:100078005c14000004140000601400006414000004
:1000880004140000681400006c14000070140000d0
:1000980074140000781400007c1400008014000020
:1000a80084140000881400000414000004140000e4
:1000b800041400008c140000901400009414000034
:1000c800981400009c140000a0140000a414000060
:1000d800a8140000ac14000004140000041400006c
:1000e80004140000b0140000b4140000041400004c
:1000f80004140000b8140000bc140000041400002c
:100108000414000004140000041400000414000087
:100118000414000004140000c014000004140000bb
:1001280004140000c4140000c8140000cc1400001b
:100138000414000004140000041400000414000057
:10014800d01400000414000004140000041400007b
:1001580004140000d4140000041400000414000067
:1001680004140000d8140000dc140000e01400009f
:10017800e4140000e8140000ec140000f01400007f
:10018800f4140000f8140000fc140000001500002e
:1001980004150000081500000414000004140000f1
:1001a80004140000041400000414000004140000e7
:1001b8000c150000041400000414000004140000ce
:1001c80004140000041400000414000004140000c7
:1001d80004140000041400000414000004140000b7
:1001e80004140000041400000414000004140000a7
:0801f8000414000004140000cf
:020000040000fa
:10280000142004000000000034e204000000000076
:1028100096d9040000000000b8d9040000000000b0
:10282000dad9040000000000fcd904000000000018
:1028300034e204000000000034e204000000000064
:1028400034e2040000000000f6df04000000000095
:1028500034e204000000000034e204000000000044
:1028600034e204000000000034e204000000000034
:1028700034e204000000000034e204000000000024
:1028800034e204000000000034e204000000000014
:1028900054d604000000000034e2040000000000f0
:1028a00034e204000000000034e2040000000000f4
:1028b00034e204000000000034e2040000000000e4
:1028c00034e204000000000034e2040000000000d4
:1028d00034e204000000000034e2040000000000c4
:1028e00034e204000000000034e2040000000000b4
:1028f00034e204000000000034e2040000000000a4
:1029000034e204000000000034e204000000000093
:1029100034e204000000000034e204000000000083
:1029200034e204000000000034e204000000000073
:1029300034e204000000000034e204000000000063
:1029400034e204000000000034e204000000000053
:1029500034e204000000000034e204000000000043
:1029600034e204000000000034e204000000000033
:1029700034e204000000000034e204000000000023
:1029800034e204000000000034e204000000000013
:1029900034e204000000000034e204000000000003
:1029a00034e204000000000034e2040000000000f3
:1029b00034e204000000000034e2040000000000e3
:1029c00034e204000000000034e2040000000000d3
:1029d00034e204000000000072af040000000000b8
:1029e00034e204000000000034e2040000000000b3
:1029f00034e204000000000034e2040000000000a3
:102a000034e204000000000034e204000000000092
:102a100034e204000000000034e204000000000082
:082a200034e204000000000094
:020000040000fa
:104028002ff321002ef222000e018800000000006c
:104038000c000700202f2c00010020000f000700b3
:10404800000020000000e000020032000000020032
:104058000000000026df0200000000000040da0037
:104068000000fe00409320000000e0000200320043
:10407800002020009001880000000600a1028800ae
:10408800800078000000eb001a003700e280400052
:1040980054a0b4009101ba00e280400054a0b400da
:1040a8009102ba00e280400054a0b4000002eb0084
:1040b800472bde00f507b200a6018800602ce1005e
:1040c80008003a000049eb000201e800020039004c
:1040d8003420ec0002f0a0008301e900f9ff3e0063
:1040e800040037006128e100010032000082eb0083
:1040f800040007001101ba000200e000e3ff3a00e3
:104108000000060004d0a300e20f49001c0039009b
:10411800810278003549ba000201e800020039003e
:104128003420ec0002f0a0008301e9000f00320007
:104138002549ba000201e800020039003420ec00e9
:1041480002f0a0008301e900080032000400e0004a
:104158000600320015c9ba000201e8000200390061
:104168003420ec0002f0a0008301e9008180e8001f
:1041780054a0b4000300e000e2ff3a00000006008b
:104188009102ba00055978008301e900f7ff32006f
:10419800c82ade00055978008301e900f3ff3200e0
:1041a8000400e000f1ff320011d9ba00eeff370039
:1041b80050c70400000000007ec504000000000095
:1041c800e6c9040000000000a4c9040000000000c3
:1041d8001ac8040000000000f0c704000000000036
:1041e800ecd704000000000000d804000000000024
:1041f80032de04000000000034de0400000000008d
:1042080078cc0400000000000ccc04000000000082
:10421800fecb0400000000001ecc040000000000db
:10422800cad6040000000000eebf04000000000031
:10423800fcbe040000000000dccb0400000000000d
:104248001200fa00000f980031318000f0cf2f00e3
:10425800008060003031880031318000003020005b
:10426800008070003031880020318000000f780015
:104278002031800010079800203180002007980026
:1042880031318000f0cf2f0000806000303188008d
:10429800313180000030200000807000303188000b
:1042a8002031800040079800203180005007980096
:1042b8002031800060079800ae4090002e489000a2
:1042c80080cf5000e0ff3a002e4090008e0890000a
:1042d800904098003e4090008e089000a0409800c2
:1042e8005e4090008e089000804878001e4078005c
:1042f8008e089000b04098000080fa000000060088
:104308001200fa00000f980031318000f0cf2f0022
:1043180000806000303188003131800000102000ba
:10432800008070003031880020318000200798001c
:10433800203180003007980031318000f0cf2f0005
:10434800008060003031880031318000001020008a
:1043580000807000303188002031800060079800ac
:104368002031800070079800ee4090006e48900061
:1043780080cf5000e4ff3a004e4090008e08900035
:10438800b04098007e4090008e089000a0409800b1
:104398006e4090008e089000904098000080fa00cf
:1043a800000006001600fa00100f9800210f980070
:1043b8000000eb00100798001e089000a040900035
:1043c80020c1b30080cf500014003e001e089000aa
:1043d800a04090000040eb0080cf50000f0032005a
:1043e8001e0890009040900010c3b30080cf50008a
:1043f8000a003e001e089000904090000040eb002c
:1044080080cf5000050032001e089000b040900098
:1044180090c9b30080cf5000020036000000eb00c6
:10442800770037001e089000304090000057980031
:104438001e08900010409000604f98001e089000e1
:1044480020409000704f9800ae0890000000eb00ec
:10445800808f50000d003200100280004500de0001
:1044680067406000004f78009002800020079800a5
:10447800ff3ffc0011028000000e20000080700049
:10448800100288002e0090009002880030318000d1
:104498004d00de00614060000080fb00300798009e
:1044a800be0090000000eb00808f500001003a0031
:1044b800df000700303180004f00de000040780048
:1044c8000080fb0040079800ce0090000000eb0041
:1044d800808f500006003200103180004f00de004f
:1044e800004078000080fb001007980027e6a9002c
:1044f80031318000f0cf2f0000806000303188001b
:1045080031318000001020000080700030318800b8
:1045180020318000600798001e0890001040780045
:10452800504f980031318000f0cf2f00008060009c
:104538003031880031318000003020000080700068
:10454800303188000e089000203188007e009000ed
:10455800203188006e00900020318800ce00900045
:104568000000eb00808f50000c00320027e6a80006
:104578009e0090000000eb00808f50000100320088
:1045880023e6a800be0090000000eb00808f5000da
:1045980007003200a600070005003700be009000a3
:1045a8000000eb00808f500001003a0027a6a90008
:1045b800ae0890000000eb00808f50000f00320022
:1045c8009002800050079800ff3ffc009e40780052
:1045d80067c060000080fb00670060004500dd00e8
:1045e80012028000f1f12f0081006100008070004c
:1045f800100288005e0090009002880010002000e1
:104608000080fa00000006001400fa00000f98006d
:10461800110f98000000eb00100798000e0890009a
:10462800a040900090c5b30080cf50000a003e0023
:104638000e0890009040900090c5b30080cf5000c5
:1046480005003e000e089000b040900040c2b30044
:1046580080cf5000020036000000eb0072003700e7
:104668000e08900020409000704f98000e089000af
:1046780010409000604f98009e0890000000eb00ea
:10468800808f50000d003200100280004500de00cf
:1046980067406000004f7800900280002007980073
:1046a800ff3ffc0011028000000e20000080700017
:1046b800100288002e00900090028800303180009f
:1046c8004d00de00614060000080fb00300798006c
:1046d800be0090000000eb00808f500001003a00ff
:1046e80053000700303180004f00de0000407800a2
:1046f8000080fb0040079800ce0090000000eb000f
:10470800808f500006003200103180004f00de001c
:10471800004078000080fb001007980027e6a900f9
:1047280031318000f0cf2f000080600030318800e8
:104738003131800000102000008070003031880086
:1047480020318000600798000e08900030409000eb
:10475800404f980031318000f0cf2f00008060007a
:104768003031880031318000001020000080700056
:10477800303188006e009000203188007e00900063
:1047880020318800ce0090000000eb00808f5000a0
:104798000c00320027e6a8009e0090000000eb0005
:1047a800808f50000100320023e6a800be00900070
:1047b8000000eb00808f5000070032001c0007004b
:1047c80005003700be0090000000eb00808f50000d
:1047d80001003a0027a6a9009e0890000000eb00ff
:1047e800808f50000f003200900280005007980020
:1047f800ff3ffc009e40780067c060000080fb001f
:10480800670060004500dd0012028000f1f12f0012
:104818008100610000807000100288005e00900036
:1048280090028800100020000080fa0000000600b6
:104838000800fa00881f7800100280004500de009a
:1048480067406000004f78009002800010079800d1
:10485800ff3ffc0011028000000e20000080700065
:10486800100288001e009000900288005805200061
:10487800280798002e009000303b8800a80a2000e6
:10488800280798002e009000303b880027a6a80033
:104898009002800030079800ff3ffc009e4078009f
:1048a80067c060000080fb00670060004500dd0015
:1048b80012028000f1f12f00810061000080700079
:1048c800100288003e009000900288004f04780093
:1048d8000080fa00000006006022b80006022000ee
:1048e8000000d0008180d2000482d2008582d200ec
:1048f8000000a0000202520083825a000300310027
:104908000202420083824a000000a1000603e90077
:10491800f3ff3a00000006000102780001003700aa
:1049280003007800809fbe00110009000282d800b1
:10493800000278004f00be008001e800e00f52003e
:10494800f7ff3a0084497800000278001100090056
:104958008280d8000002fd00810178008400780080
:10496800e9cf510001003400e7c1410005c3b3009d
:1049780005d04100e00f5200f3ff3a0000000600a6
:10498800881f780000047800e08f500005003d0083
:1049980088017800d0c2b300805978008100ea000d
:1049a800010037008801780003007800daff07006b
:1049b800080078004f04780000000600e4874700ec
:1049c800889fbe008a9fbe008c9fbe008e1f780005
:1049d800e16b2100f2b58000e00f51000b003a00b6
:1049e80064814000f2b5880042b68800a1009800b2
:1049f80031b68800214190000204a000a24098002e
:104a0800614190000204a000e24098006704400061
:104a18004244de004244dd0031b680000002eb0073
:104a28002e73210029f321008e8454006400440071
:104a380080bf9f00614eb900010037008b007800ed
:104a48002140900061006000020032000a00370037
:104a5800930878009101780023409000610060007d
:104a6800fbff320008814000828f510002003900ac
:104a7800e00f540054003d0091057800818f5500e7
:104a8800eeff3e008e8f550003003900e06b2100d9
:104a9800808f5500e9ff390040b68000808f5000b4
:104aa8005a003a00e06b2100808f550057003a0009
:104ab8000402e800e10f5200e0ff36002200200067
:104ac800811f7800110009008204d800cf00780007
:104ad800800f540005003600890f54000300310090
:104ae8000885e8000a054500140037006142b8004f
:104af800b2ff2f00030020000c0151008d815900e6
:104b0800820f5200838f5a000b003d0052f32100a0
:104b18000e01510008014100809fbe0011000900ec
:104b28000981d800000178004f00be000991b90042
:104b38000205780001003700080578000a007800af
:104b480032050700e10f400005003a000fbd97004d
:104b58000a0078002d050700e10f40002b00320005
:104b680041b680008008780041b68000e4814000aa
:104b780021419000830f5000020032000204a0007f
:104b8800010037000204a100a24098006405550006
:104b98000a0540000a0878004ab68800e16b21003f
:104ba800010d780042b68000a24090000104a000e8
:104bb80021419800a04090000104a10021409800e4
:104bc8000002eb009dff370032b68800828f51004b
:104bd800070036001202be0054b6880065b6880089
:104be800110978000040eb0032b68000204198009f
:104bf80035b6800085087800214090000004a000a8
:104c0800a040980064804000010037000000eb00dd
:104c18004f0778004f06be004f05be004f04be0088
:104c28004f00b100000006006400500030b6880054
:104c3800a04090000104a100214098000000060057
:104c4800889fbe008a9fbe00800478000104780017
:104c5800648154009205780069f997006101610048
:104c68000200320009007800efff07000800780012
:104c780052ff070000047800e00f54001b003200c8
:104c8800890f54001900320068bd970008055500c7
:104c980042d5de00098055004280de000a01780016
:104ca800800f550001003600000178004211dd0038
:104cb8000800be0011000700890f54000b003100e6
:104cc8004255dd000a054400890f550007003600eb
:104cd80089045500c2ccde00c24cdd0089044400c2
:104ce80050b6800061b68000808cbe000800780055
:104cf8004f05be004f04be0000000600800178008a
:104d080002003700b1597800040178000202e90076
:104d1800e00f5100fbff3a00000006008001780018
:104d28000200370081597800040178000202e90086
:104d3800e00f5100fbff3a000000060080017800f8
:104d4800060037000201e900114278008459780012
:104d5800e04f5200060032008100e800e00f5100e9
:104d6800f8ff3a00020037008059eb000101780093
:104d78008200e900e00f5100fbff3a000000060046
:104d88000c00fa00889fbe0000047800f0ff27009e
:104d9800d0bf9f008004eb0099bf9f0088bf9f0091
:104da800a8bf9f00200c2000b0bf9f00788157004b
:104db800cfb0970070805700070007000fb8970022
:104dc800094878008fb89700088050004f04be004b
:104dd8000080fa00000006000f04b000889fbe00a3
:104de8008a9fbe008c9fbe008e1f7800c0b79f00b0
:104df800d1af9f00a2b79f000000eb00c0033700af
:104e0800dfa897008100e800d1af9f0052c2b3002d
:104e180082cf520006003a000007eb0006c3b30039
:104e280003c2b300b1c2b3005fa8970014003700f3
:104e3800cfb19700330190000204b20005003200a0
:104e4800030278009401780085497800030ae80095
:104e5800070037000501fb00cfb09700020078007b
:104e6800b403070000017800e10f4100a5033200f8
:104e7800bfb297008502e800b5b79f00a1033700cd
:104e880090427800d7c2b30087cf52000b0032009f
:104e98000001e80087cf520005003c0083cf520094
:104ea8000900320081cf52000e003a000800370096
:104eb80086cf52000b003a00070037000e30a000e2
:104ec8000000e800eeff37000e00a00003003700e6
:104ed8000e10a000010037000e20a000020078008c
:104ee800e7ff3700d0af9f00e20167000100320002
:104ef8000e00a100e8016700010032000e20a100a9
:104f08008501fb000303b100e98f51000d003e004d
:104f1800000020005fa997006a00b9000003b100f3
:104f28009200fb0001004000d200fb000103b10029
:104f3800e98f5000f8ff3600c0af9f00d2af9f0046
:104f48000c0037008004eb00c9af9f00a3c2b30078
:104f580083cf520007003a002fb59700ca057800a2
:104f6800aab79f00cbaf9f005fa897000000e8009a
:104f7800d0af9f008000eb00e1af9f00e3c2b30019
:104f88005fa9970092cf11001e003a000ee0a00022
:104f9800e4c151000201e800d2af9f00124278003c
:104fa800834f52000d003a00afb2970045037800d6
:104fb800a5b79f00e6af9f00820378008703e8004b
:104fc80007017800100037006a00b9000003b1003b
:104fd800020040008301e800020037006fa8970034
:104fe800dfa997001301fb0001fd2f00828040001c
:104ff800e98f5000f4ff3600e0af9f00030178000e
:10500800010037005fa9970032427800c4779f00fb
:10501800c8c6b300884f520023003200d2af9f00a9
:105028000f003c0035c6b300854f5200a700320080
:1050380004003c00e04f52003703320083c5b30040
:105048000f00370043c6b300834f5200c40032003c
:10505800e5c14100834f5200ba003a00c000370052
:1050680035c7b300854f52001a00320007003c00d4
:10507800f3c6b300834f5200110032008341e800a9
:10508800834f5200af003a000f00370053c7b300f8
:10509800834f5200b1003200e3c14100834f5200f8
:1050a800a8003a00090037007000670001002800d6
:1050b80001003a000101200001077700d2ff370004
:1050c8000e60a000a60037000e50a0000e70a000d1
:1050d800a3003700afb49700c9027800a9b79f00b2
:1050e800d5b79f00e08f520002003a004b3c2100e8
:1050f800dbb79f000000eb00e0b79f005fb09700b0
:10510800efb097007fb197008fb997000100370083
:105118008500e8008102780061427800e04f520083
:10512800fbff3a00d0b79f00e1b79f00f2b79f009e
:1051380083bf9f00efaa9700e08f5200050032005e
:105148006fb39700868f5200020031008503780004
:10515800e7b79f00efb297000006eb004fac97004f
:10516800850f5400010036000506540068076700e3
:105178002f003a008c01780008c2b300cfb6970020
:10518800100037003d0090000004b2000400320017
:105198001d00780008487800800ee80005003700f8
:1051a8008d00780000022000e2020700e10f4000b5
:1051b80003003200bfb497008904e800b9b79f0024
:1051c8008c0178000c06e900e08f5100edff3a00f1
:1051d800170037003d0090000004b20009003200bb
:1051e8009d017800080178003240780080497800f5
:1051f800830ee80002047800e04f500008003a00ef
:1052080010003700080178003200fb000204780023
:105218008d007800c7020700e10f40000900320046
:105228003fb097000000e800b0b79f0005003700c6
:105238005fb49700efb497007fb597008fbd9700d4
:10524800cfb69700090078008004e900e00f50000d
:10525800e0ff3a00d8b79f00e9b79f00fab79f0070
:105268008bbf9f00e00f5700a602320011003700e5
:10527800380090000004b2000400320018007800e2
:105288000d487800000ce800050037008800780019
:1052980000022000a7020700e10f400003003200cf
:1052a800bfb297008502e800b5b79f000e067800e8
:1052b800020037000dc2b3004fb497000c07e90095
:1052c800e00f5600eaff3a008e0237002fb397002e
:1052d80046047800a6b79f00cfc4de000905780011
:1052e8008a0578000802be000a03be004822de00d4
:1052f8004828dd0004027000c4779f00700667002c
:1053080009003200e04f520007003200e14f42002e
:1053180005003200d4779f00e8779f002100200025
:10532800e1b79f0003003700d8779f0012002000e4
:10533800e2b79f0053fb2f0083814700d3b79f003c
:105348007cff370044fb2f0004824700d4b79f003e
:1053580015002000e5b79f0076ff37000e0cb3005c
:105368000e007800000cb2003b003a00e00f570036
:1053780005003d002fb097004005be004004be0068
:10538800a0b79f000f0037007000670012003200be
:105398002fb297004401be00a4b79f00e29f9f0070
:1053a800f39f9f00140090004f80de0080a79f00ad
:1053b80090a79f006f9c9700ff9c97000fa59700f0
:1053c8009fa59700d8b79f00e9b79f00fab79f003d
:1053d8008bbf9f000b003700afb4970049027800dd
:1053e800a9b79f0004007800cf80de000101780093
:1053f80082017800d0b79f00e1b79f00f2b79f0005
:1054080083bf9f005fb29700efb297007fb397000a
:105418008fbb9700e00f5200e08f5a00e00f5b004f
:10542800e08f5b0032003d003e00b3006022b80010
:105438006033b8005fb49700efb497007fb597006a
:105448008fbd97000804520089845a000a055b0042
:105458008b855b0022003700e00f570005003d00f8
:105468002fb297004401be004400be00a4b79f00bd
:105478000f00370070006700120032002fb4970049
:105488004803be00a8b79f00e6a79f00f7a79f00a4
:105498008004eb0089af9f000005eb009aaf9f00e6
:1054a8006fa09700ffa097000fa997009fa99700ea
:1054b800d0b79f00e1b79f00f2b79f0083bf9f005e
:1054c8000b003700afb0970041027800a1b79f00ea
:1054d80004047800090020000a0020000b002000c6
:1054e800d8b79f00e9b79f00fab79f008bbf9f000e
:1054f800efac9700e08f54000d003a001a0020002e
:10550800eaaf9f005fb09700efb097007fb19700b8
:105518008fb99700e00f5000e08f5800e00f590056
:10552800e08f5900020032008000eb00e1af9f00dd
:105538000e017800020cb200b2af9f0005042000f3
:10554800850f51003f00320003003c00e00f51007e
:10555800080032005600370004082000bfa9970051
:10556800848f51001b003200040c2000848f5100ee
:105578004f003a0013c0b300c3779f00e12b21000e
:10558800100037000200fb004300dd0000804000ef
:105598003002be002003be005fb49700efb497004e
:1055a8007fb597008fbd97000440e10005c8e10072
:1055b80006d0e10007d8e1003d0039000241e800cb
:1055c800c2779f004f719700f44f5100edff3a00ea
:1055d8003700370013c0b300c3779f0004012000d1
:1055e800050020006033b800120037005fb4970050
:1055f800efb497007fb597008fbd97000440e10096
:1056080005c8e10006d0e10007d8e100280039000c
:10561800490020000402d0008582d2000683d2000f
:105628008783d2008904e900faff3a000040e800c5
:10563800c0779f004f709700f04f5000ebff3a0083
:105648001b00370013c0b300c3779f0084002000fd
:10565800050020006033b800120037005fb49700df
:10566800efb497007fb597008fbd97000440e10025
:1056780005c8e10006d0e10007d8e1000c003900b8
:10568800390020000402d0008582d2000683d200af
:105698008783d2008904e900faff3a000040e80055
:1056a800c0779f004f709700f54f5000ebff3a000e
:1056b8004f7597008a02fb00efad97008b8f520061
:1056c80002003d00cb779f00040037006fa89700c9
:1056d800850f500001003d00e5af9f00cfa897005f
:1056e800e08f5000040032006302670002003200bd
:1056f8008100e900c1af9f00040024000402670094
:10570800090032004fa99700efa99700830f5100b5
:105718000300340003015100c2af9f0002003700ac
:105728000002eb00c4af9f004f7397008602fb0096
:105738008003eb00a7af9f004fac9700850f540084
:105748000200340085025400a5af9f006402670080
:105758004c003200e202670061036700e08f5200ec
:105768001b003200cfb49700390290000404b20045
:105778000900320099037800b5c2b300e00f530066
:105788000100320085c2e800854b78004fb59700cc
:10579800070de8000a003700d5022000e00f53008b
:1057a80001003a008582e900cfb097000500780033
:1057b8006001070000027800e10f42001800320083
:1057c800bfb597008b05e800bbb79f0014003700f2
:1057d800e00f5300120032004fb0970030029000e3
:1057e8000404b200050032009002780003c2b3003e
:1057f800834a78000508e80006003700cfb0970014
:10580800000220004b01070000027800e10f42006f
:1058180003003200bfb097008100e800b1b79f00d5
:105828002fa99700e00f51001101320008c3b300ff
:10583800820678004fb697003c0090000004b20042
:10584800040032001c00780008487800000ee800c8
:10585800050037008c0078000003200035010700a0
:10586800e10f400003003200bfb197008301e80058
:10587800b3b79f008d06e900efff3a00adaf9f0078
:10588800fb0037002faa9700e00f520017003200e4
:105898006802670015003a0008c2b300afae97006f
:1058a8004fb697003c0090000004b200040032009c
:1058b8001c00780008487800000ee8000500370052
:1058c8008c007800000220001a010700e10f400058
:1058d80003003200bfb297008502e800b5b79f0009
:1058e8008d06e900efff3a00adaf9f00e2026700c6
:1058f80061036700e08f52001c003200cfb39700ad
:10590800370290000404b2000a003200070478004d
:1059180098037800b5c2b300e00f530001003200cd
:1059280085c2e800854b7800cfb49700870ce80063
:105938000a003700d5022000e00f530001003a00aa
:105948008582e900cfb0970005007800f9000700cc
:1059580000027800e10f4200c50032003fb5970011
:105968000a05e800bab79f00c1003700e00f5300ee
:10597800bf003200cfb597003b0290000404b2008c
:10598800050032009b02780003c2b300834a780006
:10599800850de80006003700cfb097000002200010
:1059a800e400070000027800e10f4200b000320076
:1059b8003fb097000000e800b0b79f00ac00370088
:1059c8000e07e90000042000bfa89700808f500050
:1059d8008200320003003c00e08f500008003200d3
:1059e8008e003700000820003fa99700800f510063
:1059f80065003200000c2000800f510087003a003b
:105a08004370dd00cfa99700e08f51002a003d00c8
:105a1800e42b2100000042003004be002005be0037
:105a2800e8af9f00f9af9f008ab79f009bb79f0020
:105a38000802be000a03be005fb09700efb09700ef
:105a48007fb197008fb9970026020700c0779f00a3
:105a58000004fb00cfc4de00090578008a05780041
:105a68006faa9700ffaa97000fb397009fb39700fc
:105a78000800be000a01be00860207000203be003d
:105a88000002be005fb09700efb097007fb19700ab
:105a98008fb997000400500085805800060159000e
:105aa80087815900d0b79f00e1b79f00f2b79f00e8
:105ab80083bf9f0030003700df989700e08f5000c9
:105ac8001f0032005fb69700efb69700e22b210067
:105ad800000041003004be002005be000801be00e1
:105ae8000c00be007cfb0700c0779f000000fb0095
:105af800cf80de000801be006601070000025600e4
:105b080081825e00a4a79f00b5a79f008002eb00da
:105b1800c5a79f000003eb00d6a79f002fa49700fe
:105b2800bfa497004fa59700dfa59700d8b79f009f
:105b3800e9b79f00fab79f008bbf9f000e003700a0
:105b4800e92b2100690178005fb59700811f780073
:105b5800110009000285d800cf007800a2002000bb
:105b6800811f7800110009000280d8000100780028
:105b7800cf007800c0779f00cf7597000b43b00027
:105b8800cb779f0025003700243a21004f989700d3
:105b9800e00f500001003a00343b21004270dd0064
:105ba8005fb49700efb497007fb597008fbd97005b
:105bb800800278008502e900050033008b05d100da
:105bc8000a85d3008984d3000884d300f9ff3700fd
:105bd8006f006400644078000f0037006370b900fc
:105be8005fb49700efb497007fb597008fbd97001b
:105bf800000278000402e900050033008b05d1009b
:105c08000a85d3008984d3000884d300f9ff3700bc
:105c1800674064000043b000c0779f00cfb2970090
:105c2800350090000004b20007003200150178002a
:105c38004f70970000497800820ae800e04f500052
:105c480007003a00120037004f7397000600fb0068
:105c5800cfb0970037000700e10f40000c0032007a
:105c6800bfb397008703e800b7b79f000800370065
:105c780070046700d89f9f008e0478000902b20064
:105c8800c99f9f000e057800caaf9f006faf9700ad
:105c9800e00f57004aff3a004faf970068016700ce
:105ca80018003200afad9700e08f550015003400a2
:105cb80008c2b3008b0678003fb797004fb697002d
:105cc8003c0090000004b200040032001c00780080
:105cd80008487800000ee800050037008c007800be
:105ce8000002200013000700e10f4000010032000d
:105cf8000e07e8008d06e900f1ff3a000e00780073
:105d0800b0b79f00dfa8970091427800c5779f0041
:105d1800e0cf52003afc3a003fb097004f077800b6
:105d28004f06be004f05be004f04be000f04b10071
:105d380000000600889fbe0001047800b8009000ab
:105d4800628160008084eb003c00320081017800b1
:105d58000320b2001801900002003a00e00f510041
:105d680036003a000190a0003104980080047800c1
:105d7800f90fb200e00f510002003a00280090002d
:105d8800000c7800ea8f540006003a000100780001
:105d98000008b20003003a0088007800d000200014
:105da800e4ff070018009000d8009000810f500011
:105db8000b0032000000e80010049800180078007a
:105dc80009487800000ce80010c0b30001712100f8
:105dd80080487800ea8f540018003a000500370020
:105de80088007800094078001700070080047800d0
:105df80012003700380090000010b2000f00320087
:105e080018019000a800900048009000500007007a
:105e180098009000810f5000040032003800900074
:105e28000003b300300498008084eb000000eb000e
:105e38001004980028009000000c780009007800f1
:105e48004f04be00000006000200fa00889fbe0052
:105e5800a0ff9f00010478003800900080007800bf
:105e68000104b20033003a00e200600005003a0085
:105e78000003b30030049800110498000080eb0080
:105e88002e003700d8049000e08f540006003a0036
:105e980012002000e6805700480090002c00070000
:105ea8001904980023003700a8009000e08f5000e4
:105eb80008003a003171210021049800010c780093
:105ec8002100200051049800110498000030a0001f
:105ed8003004980018019000a80090004800900035
:105ee8001b000700280090008080eb001104980038
:105ef800aff8970001487800000ce8002ff89700e9
:105f0800ea4f50000b003a00380090000010b20031
:105f18000800320018019000a80090004800900086
:105f28000b0007000000eb0010049800a800900088
:105f3800010c7800aff897000100fb004f04be0089
:105f48000080fa000000060000c0da000000060029
:105f58000a00fa00e20f500021003e0070b98000ec
:105f6800e10f500006003200852320004423200062
:105f78002323200000232000e08f520004003a0071
:105f88008522200044222000232220000022200015
:105f9800060028009003630002003a00870a780090
:105fa80010087300004020001300600001003a0050
:105fb80013a0a000020078000600370093027800c2
:105fc8000510b200fdff3200b102fb00050a78009f
:105fd8000000e900e00f5000f8ff3a000800370021
:105fe80033002000b3bf9f00c0bf9f00d1bf9f00f8
:105ff800e2bf9f006a805700d3ff07006fb9970080
:10600800020078000080fa0000000600889fbe00a9
:106018008004780080b98000e00f500004003a0046
:106028000e0007000084eb00e00f50000800350068
:1060380088b98000e08f5400050032000900440050
:1060480006000700e00f500001003d000084eb004f
:10605800080078004f04be0000000600e00f500062
:1060680004003a002173210081b98800800078007b
:10607800060037008080eb0022f32100820f5000d9
:1060880002003e0080b988008000eb000100780023
:1060980000000600020ab900001bb9000200b8009f
:1060a800810042008100430000000600889fbe0076
:1060b8008a9fbe003004be002005be0004044400d0
:1060c80085844c0006054d0087854d000898be0064
:1060d8000a90be000440e10005c8e10006d0e100d6
:1060e80007d8e10002003100680040001008e8000d
:1060f8004f05be004f04be0000000600889fbe008a
:106108008a9fbe008c1f7800000678003c04be0001
:106118002c05be000400540085805c0006015d006b
:1061280087815d00009ebe00029ebe001000200018
:106138000440e10005c8e10006d0e10007d8e1000d
:10614800010039000000eb001c0e10004f0678001b
:106158004f05be004f04be00000006001200fa0002
:10616800889fbe008a9fbe008c9fbe000205be00ad
:106178000004be00e4b79f00f5b79f0086bf9f00ec
:1061880097bf9f000000eb00d0b79f00c0b79f00eb
:10619800b0b79f00a0b79f0090b79f000006780097
:1061a800fd032000dfb197004fb097000381410045
:1061b800bfb09700e08f510004003d0029000700a0
:1061c8007e805700b9ff070003003700250007004d
:1061d8007e805700c9ff0700dfb09700e08f5000ae
:1061e8000700350014002000050020006033b800c7
:1061f80008047200898472000a0573008b85730095
:106208000c06e8008d0f5600e6ff3400e08f5000c2
:1062180006003d006fb29700ffb297000fbb9700d2
:106228009fbb97007e805700a0ff07005fa89700dc
:10623800e00f500004003a001fb49700afb4970075
:106248003fb59700cfb597000800be000a01be0011
:106258004f06be004f05be004f04be000080fa0086
:1062680000000600cf01de0002817100b2b79f0076
:106278004f09de000000400000007100a0b79f0039
:106288000fb097004f01de0081804000810071004f
:1062980091b79f007faa9700cf20de000000400042
:1062a8000080700080b79f000800be000a01be0091
:1062b8004f18de000402420000027200f4af9f0093
:1062c8000804440089844c000a054d008b854d0064
:1062d8004fb29700dfb297006fb39700ffb39700f4
:1062e80000000600881f780018002000881f78002a
:1062f8009aff07008f87e9004f0478000000060026
:10630800801feb0095ff07008f87e900000006005b
:10631800889fbe008a9fbe008c1f7800e00f500047
:10632800e08f5800e00f5900e08f59000f003d0042
:106338006044b8006055b8000000540081805c00db
:1063480002015d0083815d001c0020000820e1003f
:1063580009a8e1000ab0e1000bb8e1000d003d001a
:10636800190007000006eb000a0037000006eb00e2
:10637800e00f5200e08f5a00e00f5b00e08f5b00f7
:1063880004003d006044b8006055b8000e000700e6
:106398001c002000d3ff0700e00f56000600320063
:1063a8006022b8006033b8000000520081805a00b3
:1063b80002015b0083815b004f0678004f05be0039
:1063c8004f04be00000006000402540085825c00f1
:1063d80006035d0087835d0000000600889fbe00fd
:1063e8008a9fbe008c1f7800e00f5000e08f580095
:1063f800e00f5900e08f59000d003d006044b800df
:106408006055b8000000540081805c0002015d0006
:1064180083815d001c0020000820e10009a8e1003c
:106428000ab0e1000bb8e1000d003d00080037009c
:106438000006eb00e00f5200e08f5a00e00f5b000f
:10644800e08f5b0006003d006044b8006055b8006e
:106458000402540085825c0006035d0087835d00aa
:10646800a7ff0700e00f5600060032006022b800c0
:106478006033b8000000520081805a0002015b00be
:1064880083815b004f0678004f05be004f04be00b5
:1064980000000600889fbe008a9fbe008c1f7800ff
:1064a8000006eb00e00f5000e08f5800e00f5900a5
:1064b800e08f590007003d006044b8006055b800ff
:1064c8000000540081805c0002015d0083815d0052
:1064d8001c002000e00f5200e08f5a00e00f5b0024
:1064e800e08f5b0007003d006044b8006055b800cd
:1064f8000402540085825c0006035d0087835d000a
:106508000c00a2000c000700e00f56000600320045
:106518006022b8006033b8000000520081805a0041
:1065280002015b0083815b004f0678004f05be00c7
:106538004f04be0000000600889fbe008a9fbe0070
:106548008c9fbe000404b8000506b8008904460004
:1065580060854e000606b8000a054600e0854e0034
:106568000706b8008b054600040eb80089044600eb
:106578000a854e00e0854d00050eb8000a05460064
:106588008b854e00060eb8008b0546000416b80031
:106598000a0546008b854e000516b8008b05460097
:1065a800041eb8008b0546000800be000a01be00a4
:1065b8004f06be004f05be004f04be000000060097
:020000040000fa
:1065c800000000000000000000000000004f000074
:1065d8000000000000070000000700000014000091
:1065e8007f1400007f140000242a00007f2a000086
:1065f80012230000130800006462000036490000fe
:1066080055220000500000000503000000000000b3
:10661800001c000022410000000000004122000090
:106628001c000000140800003e08000014080000c8
:10663800083e00000808000000500000300000007c
:1066480000080000080800000808000000600000ba
:106658006000000000200000100800000402000094
:106668003e510000494500003e000000427f000006
:10667800400000004261000051490000462100002e
:10668800414500004b31000018140000127f000043
:106698001027000045450000453900003c4a00002d
:1066a800494900003001000071090000050300009d
:1066b80036490000494900003606000049490000f3
:1066c800291e00000036000036000000000000000f
:1066d80056360000000000000814000022410000a7
:1066e80000140000141400001414000000410000fd
:1066f80022140000080200000151000009060000f1
:1067080032490000794100003e7e0000111100006e
:10671800117e00007f49000049490000363e000014
:1067280041410000412200007f4100004122000059
:106738001c7f000049490000494100007f09000012
:1067480009090000013e000041490000497a0000a3
:106758007f080000080800007f000000417f00005b
:106768004100000020400000413f0000017f000080
:1067780008140000224100007f4000004040000053
:10678800407f0000020c0000027f00007f04000030
:10679800081000007f3e000041410000413e00001b
:1067a8007f09000009090000063e00004151000071
:1067b800215e00007f0900001929000046460000fc
:1067c8004949000049310000010100007f01000033
:1067d800013f000040400000403f00001f20000033
:1067e800402000001f3f000040380000403f0000ec
:1067f800631400000814000063070000087000001c
:1068080008070000615100004945000043000000ee
:106818007f41000041000000020400000810000051
:1068280020000000414100007f0000000402000039
:106838000102000004400000404000004040000009
:106848000001000002040000002000005454000071
:10685800547800007f4800004444000038380000a5
:10686800444400004420000038440000444800002c
:106878007f3800005454000054180000087e0000bf
:1068880009010000020c000052520000523e0000b4
:106898007f0800000404000078000000447d000028
:1068a8004000000020400000443d0000007f000040
:1068b8001028000044000000004100007f40000054
:1068c800007c000004180000047800007c08000028
:1068d80004040000783800004444000044380000f4
:1068e8007c140000141400000808000014140000b0
:1068f800187c00007c080000040400000848000020
:106908005454000054200000043f0000444000009c
:10691800203c000040400000207c00001c200000bb
:10692800402000001c3c000040300000403c0000bb
:106938004428000010280000440c000050500000bb
:10694800503c000044640000544c00004400000027
:106958000836000041000000000000007f00000031
:10696800000000004136000008000000020100009d
:106978000204000002000000000000000000000007
:10698800e4b2000005080000c4b4000000000000e4
:1069980000000000000000000000000000000000ef
:1069a80000000000000000000000000000000000df
:1069b80000000000000000000000000000000000cf
:1069c80000000000000000000000000000000000bf
:1069d800240000004800000084000000d8000000e7
:1069e8002c01000080010000ec01000010020000f2
:1069f800340200005802000094020000e80200007f
:106a08000c030000480300006c030000a80300000a
:106a1800fc03000050040000a4040000f804000077
:106a28004c050000a0050000f40500004806000021
:106a38009c060000f006000014070000380700005c
:106a48008c070000e0070000340800007c08000004
:106a58000c09000060090000c0090000140a0000c9
:106a6800740a0000c80a00001c0b00007c0b000020
:106a7800dc0b0000000c0000300c0000840c00004f
:106a8800cc0c0000440d0000a40d0000040e000012
:106a9800580e0000b80e0000180f00006c0f000020
:106aa800c00f00002010000074100000f810000053
:106ab8004c110000a0110000f41100002412000085
:106ac8006012000090120000e4120000441300005d
:106ad80068130000b0130000041400004014000004
:106ae80094140000dc1400000c150000541500007c
:106af800a8150000cc150000f0150000381600009d
:106b08005c160000d4160000281700007c1700004f
:106b1800d017000024180000541800009c1800002a
:106b2800cc1800002019000068190000e0190000c6
:106b3800281a0000701a0000b81a0000e81a0000ad
:106b48000c1b00003c1b00000303000005070000ad
:106b58000707000009030000030300000507000001
:106b680003050000030500000707000007070000f1
:106b780007070000070700000707000003030000dd
:106b880007070000070600000c07000008070000c0
:106b980008070000070800000803000004070000b9
:106ba800060a00000808000007080000080700009f
:106bb80007080000070b0000070700000704000093
:106bc8000504000007080000030600000705000090
:106bd8000706000004060000070300000306000083
:106be800030a00000707000007070000040600006a
:106bf80004070000060a000006060000060400005c
:106c08000304000007030000070300000307000057
:106c18000409000006070000030a0000070400003a
:106c28000c03000007030000030300000305000035
:106c380005060000080e0000030800000604000016
:106c48000b0300000607000003030000070700000d
:106c580007070000030600000308000005070000fe
:106c680007030000080300000707000003030000f3
:106c780003070000070300000303000005070000e6
:106c880007070000070600000707000007070000c5
:106c9800070700000b0700000707000007070000b0
:106ca80003030000030300000808000008080000b0
:106cb800080800000807000008080000080800008d
:106cc8000807000007070000060600000606000087
:106cd800060600000a050000060600000606000079
:106ce8000303000003030000070700000707000074
:106cf8000707000007070000070700000707000054
:106d08000706000007060000256400003a25000079
:106d1800643a00002564000000530000756e00000e
:106d28006461000079000000004d00006f6e0000f3
:106d380064610000790000000054000075650000df
:106d480073640000617900000000000057650000ce
:106d5800646e000065730000646100007900000043
:106d68000054000068750000727300006461000040
:106d780079000000004600007269000064610000ac
:106d88007900000000530000617400007572000073
:106d9800646100007900000000530000756e000077
:106da800000000004d6f00006e000000005400005d
:106db80075650000000000005765000064000000d1
:106dc80000540000687500000000000046720000d2
:106dd800690000000053000061740000000000001a
:106de8004a6100006e7500006172000079000000c1
:106df80000460000656200007275000061720000c4
:106e080079000000004d0000617200006368000016
:106e18000000000041700000726900006c00000072
:106e2800004d000061790000000000004a75000074
:106e38006e650000000000004a7500006c790000d3
:106e480000000000417500006775000073740000c1
:106e5800000000005365000070740000656d0000bc
:106e68006265000072000000004f000063740000bb
:106e78006f62000065720000000000004e6f0000a5
:106e8800766500006d620000657200000000000079
:106e980044650000636500006d62000065720000d3
:106ea800000000004a6100006e000000004600007b
:106eb80065620000000000004d61000072000000e3
:106ec8000041000070720000000000004a750000d8
:106ed8006e000000004a0000756c00000000000011
:106ee8004175000067000000005300006570000055
:106ef800000000004f63000074000000004e000016
:106f08006f76000000000000446500006300000088
:106f1800007400006800000073740000006e000038
:106f28006400000072640000006100006d00000051
:106f3800007000006d000000000000001f0000004d
:106f48001c0000001f0000001e0000001f000000c1
:106f58001e0000001f0000001f0000001e000000af
:106f68001f0000001e0000001f000000008000003d
:106f780040c0000020a0000060e000001090000069
:106f880050d0000030b0000070f000000888000009
:106f980048c8000028a8000068e800001898000009
:106fa80058d8000038b8000078f8000004840000c1
:106fb80044c4000024a4000064e400001494000009
:106fc80054d4000034b4000074f400000c8c0000a9
:106fd8004ccc00002cac00006cec00001c9c0000a9
:106fe8005cdc00003cbc00007cfc0000028200006d
:106ff80042c2000022a2000062e2000012920000d9
:1070080052d2000032b2000072f200000a8a000078
:107018004aca00002aaa00006aea00001a9a000078
:107028005ada00003aba00007afa00000686000030
:1070380046c6000026a6000066e600001696000078
:1070480056d6000036b6000076f600000e8e000018
:107058004ece00002eae00006eee00001e9e000018
:107068005ede00003ebe00007efe000001810000e2
:1070780041c1000021a1000061e100001191000060
:1070880051d1000031b1000071f100000989000000
:1070980049c9000029a9000069e900001999000000
:1070a80059d9000039b9000079f9000005850000b8
:1070b80045c5000025a5000065e500001595000000
:1070c80055d5000035b5000075f500000d8d0000a0
:1070d8004dcd00002dad00006ded00001d9d0000a0
:1070e8005ddd00003dbd00007dfd00000383000064
:1070f80043c3000023a3000063e3000013930000d0
:1071080053d3000033b3000073f300000b8b00006f
:107118004bcb00002bab00006beb00001b9b00006f
:107128005bdb00003bbb00007bfb00000787000027
:1071380047c7000027a7000067e70000179700006f
:1071480057d7000037b7000077f700000f8f00000f
:107158004fcf00002faf00006fef00001f9f00000f
:107168005fdf00003fbf00007fff0000436f0000ab
:1071780072650000004400007261000077000000a2
:107188004f4c000045440000205700006174000087
:107198006368000020760000312e000030000000f7
:1071a80052530000543a000020420000726f000061
:1071b800776e00002d6f000075740000005200000b
:1071c800535400003a200000436f00006e66000030
:1071d800204d0000697300006d61000074630000b9
:1071e8006800000052530000543a00002049000093
:1071f8006e760000616c000069640000204f00009a
:10720800706300006f6400006500000052530000c6
:10721800543a0000204d0000434c0000520000008a
:1072280052530000543a0000205000006f770000cd
:10723800657200002d6f00006e00000052530000c0
:10724800543a000020570000617400006368000091
:10725800646f000067200000546900006d6500003d
:107268006f7500007400000052530000543a00008b
:107278002054000072610000702000004572000078
:10728800726f00007200000052530000543a000070
:10729800205500006e6b00006e6f0000776e0000d6
:1072a80000250000336400002525000000250000ab
:1072b80064000000b8b900000102000010000000de
:1072c80009000000f8bb0000010200000e000000e9
:1072d800060000001201000000020000000000008b
:1072e80000080000d80400003f0000000200000071
:1072f800010200000001000009020000290000004e
:107308000101000000c00000320900000400000074
:107318000002000003000000000000000921000036
:107328001101000000010000221c000000070000fd
:10733800058100000340000000010000070500006f
